:100000005EC0000069C300008EC300007FC0000016
:100010007DC000007BC0000079C0000001C300006B
:1000200075C0000073C0000071C000000C94C00BCC
:100030006DC000006BC0000069C0000067C0000018
:10004000A4C3000063C0000034C1000064C100000C
:100050005DC000005BC0000059C0000057C0000038
:1000600055C0000053C0000002000000080002015B
:10007000000003040700000000000000000102046B
:10008000081020408001020408102001020408101A
:100090002004040404040404040202020202020311
:1000A000030303030300000000250028002B0000C9
:1000B000000000240027002A0000B90125021124B5
:1000C0001FBECFEFD8E0DEBFCDBF11E0A0E0B1E0B2
:1000D000E2E1F9E102C005900D92A234B107D9F72F
:1000E00028E0A2E4B1E001C01D92AB38B207E1F70D
:1000F00010E0CFE5D0E004C02197FE010E94810C02
:10010000CD35D107C9F737D30C94870C79CFFC01D3
:10011000918D228D892F90E0805C9F4F821B9109E9
:100120008F7399270895FC01918D828D981731F076
:10013000828DE80FF11D858D90E008958FEF9FEF80
:100140000895FC01918D828D981761F0828DDF01F9
:10015000A80FB11D5D968C91928D9F5F9F73928FBA
:1001600090E008958FEF9FEF0895FC01538D448D2B
:10017000252F30E0842F90E0821B930B541710F052
:10018000CF9608950197089580EB91E0892B41F077
:1001900080E090E0892B21F0E3D081110C940000E5
:1001A0000895FC01848DDF01A80FB11DA35ABF4F34
:1001B0002C91848D90E001968F739927848FA68966
:1001C000B7892C93A089B1898C9180648C93938D8D
:1001D000848D981306C00288F389E02D80818F7D7D
:1001E00080830895CF93DF93EC01888D8823C1F03D
:1001F000EA89FB89808185FD05C0A889B9898C9130
:1002000086FD0EC00FB607FCF5CF808185FFF2CFCB
:10021000A889B9898C9185FFEDCFCE01C2DFE8CFE7
:10022000DF91CF910895EF92FF920F931F93CF9399
:10023000DF93EC0181E0888F9B8D8C8D981305C036
:10024000E889F989808185FD23C0F62E0B8D10E0A9
:100250000F5F1F4F0F731127E02E8C8DE8120BC01C
:100260000FB607FCFACFE889F989808185FFF5CFC1
:10027000CE0197DFF2CF8B8DFE01E80FF11DE35A1F
:10028000FF4FF0820B8FEA89FB898081806207C073
:10029000EE89FF896083E889F989808180648083A1
:1002A00081E090E0DF91CF911F910F91FF90EF904F
:1002B00008951F920F920FB60F9211242F938F93D0
:1002C0009F93EF93FF93E0915201F091530180814E
:1002D000E0915801F091590182FD12C09081809106
:1002E0005B018F5F8F7320915C01821751F0E09169
:1002F0005B01F0E0EE5BFE4F958F80935B0101C0E8
:100300008081FF91EF919F918F912F910F900FBE60
:100310000F901F9018951F920F920FB60F921124F5
:100320002F933F934F935F936F937F938F939F93FD
:10033000AF93BF93EF93FF9382E491E032DFFF919D
:10034000EF91BF91AF919F918F917F916F915F914D
:100350004F913F912F910F900FBE0F901F901895C6
:1003600082E491E0D4DE21E0892B09F420E0822FA1
:100370000895E2E4F1E01382128288EE93E0A0E0B7
:10038000B0E084839583A683B7838CE091E091836A
:10039000808385EC90E09587848784EC90E0978754
:1003A000868780EC90E0918B808B81EC90E0938B42
:1003B000828B82EC90E0958B848B86EC90E0978B1F
:1003C000868B118E128E138E148E08958F929F92AB
:1003D000AF92BF92CF92DF92EF92FF920F931F9353
:1003E000CF93DF937C018B016C0182E0C80ED11C9E
:1003F0004701E5E08E0E911CC0E0D0E0F60161916E
:100400006F014AE050E0C801D1D05C016EE2C80142
:1004100067D08A0D9B1DC80FD91FC814D90471F766
:100420004AE050E0F7016581C801C0D08C0F9D1FE4
:10043000DF91CF911F910F91FF90EF90DF90CF90C0
:10044000BF90AF909F908F900895EFEDF1E08EE117
:1004500091E0918380831282138214821582089521
:10046000CF92DF92EF92FF920F931F93CF93DF9380
:100470006C017A018B01C0E0D0E0CE15DF0589F078
:10048000D8016D918D01D601ED91FC910190F08123
:10049000E02DC6010995892B11F47E0102C0219639
:1004A000ECCFC701DF91CF911F910F91FF90EF909B
:1004B000DF90CF9008956115710579F0FB010190EF
:1004C0000020E9F73197AF01461B570BDC01ED9196
:1004D000FC910280F381E02D099480E090E0089582
:1004E000DC01ED91FC910190F081E02D09948F9257
:1004F0009F92AF92BF92CF92DF92EF92FF920F93B3
:100500001F93CF93DF93CDB7DEB7A1970FB6F894C3
:10051000DEBF0FBECDBF7C01D42EC52EDB0119A2DC
:10052000223008F42AE08E010F5D1F4F822E912C9D
:10053000A12CB12C6D2D7C2DCD01A50194010E9423
:100540005F0CD22EC32EDA01015011096A307105F9
:100550008105910510F4605D01C0695CF80160835C
:10056000232B242B252B31F7B801C701A4DFA1963B
:100570000FB6F894DEBF0FBECDBFDF91CF911F91B4
:100580000F91FF90EF90DF90CF90BF90AF909F9032
:100590008F9008952115310541F4DC01ED91FC9116
:1005A0000190F081E02D642F0994A1CF9A01462F8C
:1005B00050E060E070E0EECF813039F018F082302A
:1005C00051F0089510926E00089580916F008D7F14
:1005D00080936F000895809170008D7F80937000EC
:1005E00081E08093B0008091B100887F8460809327
:1005F000B1001092B3000895CF93C82F80910001ED
:100600008C1307C0E8E6F0E0E4918FEF80930001DF
:1006100001C0EFEF8E2FD0DF60E08C2FCF919FC114
:100620001F920F920FB60F9211242F933F934F9367
:100630005F936F937F938F939F93AF93BF93EF934A
:10064000FF938091E8019091E901A091EA01B091B6
:10065000EB01892B8A2B8B2B51F18091E501E091E5
:10066000E601F091E7019081892780838091E8017C
:100670009091E901A091EA01B091EB0118161906D9
:100680001A061B06BCF48091E8019091E901A09143
:10069000EA01B091EB010197A109B1098093E8014A
:1006A0009093E901A093EA01B093EB0103C080911C
:1006B0000001A2DFFF91EF91BF91AF919F918F91C8
:1006C0007F916F915F914F913F912F910F900FBE4E
:1006D0000F901F90189508951F920F920FB60F92CA
:1006E00011242F933F934F935F936F937F938F9337
:1006F0009F93AF93BF93EF93FF93E0910101F0912C
:1007000002010995FF91EF91BF91AF919F918F9158
:100710007F916F915F914F913F912F910F900FBEFD
:100720000F901F9018951F920F920FB60F921124E1
:100730002F933F934F935F936F937F938F939F93E9
:10074000AF93BF93EF93FF93E0910301F091040106
:100750000995FF91EF91BF91AF919F918F917F91FB
:100760006F915F914F913F912F910F900FBE0F901E
:100770001F901895089553D0FDDFE6D1C4ECD0E06A
:100780001AD22097E9F300DDFBCF1F920F920FB62C
:100790000F9211242F933F938F939F93AF93BF9307
:1007A0008091ED019091EE01A091EF01B091F001E7
:1007B0003091EC0123E0230F2D3720F40196A11D89
:1007C000B11D05C026E8230F0296A11DB11D20937F
:1007D000EC018093ED019093EE01A093EF01B093B3
:1007E000F0018091F1019091F201A091F301B0919B
:1007F000F4010196A11DB11D8093F1019093F201C6
:10080000A093F301B093F401BF91AF919F918F91A9
:100810003F912F910F900FBE0F901F9018957894D5
:1008200084B5826084BD84B5816084BD85B58260F5
:1008300085BD85B5816085BDEEE6F0E08081816093
:100840008083E1E8F0E01082808182608083808193
:1008500081608083E0E8F0E0808181608083E1EB6B
:10086000F0E0808184608083E0EBF0E08081816053
:100870008083EAE7F0E08081846080838081826009
:1008800080838081816080838081806880831092F2
:10089000C1000895833081F028F4813099F08230CE
:1008A000A1F008958730A9F08830B9F08430D1F4F0
:1008B000809180008F7D03C0809180008F7780932E
:1008C0008000089584B58F7702C084B58F7D84BD84
:1008D00008958091B0008F7703C08091B0008F7D24
:1008E0008093B0000895CF93DF9390E0FC01E3582C
:1008F000FF4F2491FC01EF56FF4F8491882361F153
:1009000090E0880F991FFC01E155FF4FC591D491EC
:10091000FC01EB55FF4FA591B491611109C09FB740
:10092000F8948881209582238883EC912E230BC034
:10093000623061F49FB7F8943881822F80958323C9
:100940008883EC912E2B2C939FBF06C08FB7F89411
:10095000E8812E2B28838FBFDF91CF9108951F93BD
:10096000CF93DF93282F30E0F901E759FF4F8491AF
:10097000F901E358FF4FD491F901EF56FF4FC491AD
:10098000CC23C1F0162F811185DFEC2FF0E0EE0FA4
:10099000FF1FEB55FF4FA591B4918FB7F89411113C
:1009A00005C09C91ED2FE095E92302C0EC91ED2B61
:1009B000EC938FBFDF91CF911F910895BF92CF929B
:1009C000DF92EF92FF920F931F93CF93DF93C82E86
:1009D000D62EB42EC7E0D0E0022F10E087E0E82E3C
:1009E000F12CB11005C0C7018C1B9D0B980102C0F2
:1009F00098018C2F02C0359527958A95E2F7B901A9
:100A0000617077278C2DABDF61E08D2DA8DF60E072
:100A10008D2DA5DF219728F7DF91CF911F910F91A1
:100A2000FF90EF90DF90CF90BF900895CF93DF932A
:100A300000D000D0CDB7DEB719821A821B821C828B
:100A400000E010E0FF24F3940F2580910501882336
:100A500011F0011101C01F25612F87E080DF4AEFEF
:100A600050E060E070E0CE01019696D3EDCFCF93D9
:100A7000DF931F92CDB7DEB7282F60E083E0298394
:100A80006EDF298141E064E082E098DF61E083E08D
:100A90000F90DF91CF9163CFCF93DF9300D000D041
:100AA000CDB7DEB733D269837A838B839C8300E032
:100AB00010E080E0DCDF4AEF50E060E070E0CE0163
:100AC00001966AD38FEFD3DF0230110539F04AEF78
:100AD00050E060E070E0CE0101965ED30F5F1F4FE3
:100AE0000330110531F700E010E0DD24D3948EE0EF
:100AF000E82EF12C0BD269837A838B839C838091BF
:100B00000501811103C08FEFB2DF16C00730110558
:100B100024F0C701801B910B01C0C8012D2D01C01D
:100B2000220F8A95EAF7822FA2DF0F5F1F4F0E3048
:100B3000110514F000E010E04DE750E060E070E0D7
:100B4000CE01019629D3D6CFAF92BF92CF92DF923A
:100B5000EF92FF920F9361E082E0C5DE61E083E0F7
:100B6000C2DE61E084E0BFDE61E087E0BCDE8FEFE3
:100B70007EDFA12CB12CC12CD12CE12CF12C03E077
:100B800020E030E048EC50E060E271E08CE495E079
:100B900084D002E020E030E048EC50E06FE271E009
:100BA00086E195E07AD00F91FF90EF90DF90CF90A3
:100BB000BF90AF9066C10895E0911E02F0911F02B0
:100BC0008081811104C08FEF9FEFDC010EC0E091A6
:100BD0001E02F0911F020780F085E02D0084F18550
:100BE000E02D82819381A481B5818093F601909359
:100BF000F701A093F801B093F9010895CF92DF9225
:100C0000EF92FF92E091A402F091A50262837383B8
:100C100084839583C0900002D0900102E09002028C
:100C2000F09003026C157D058E059F0578F46091A8
:100C3000A4027091A50280911C0290911D026E5F2A
:100C40007F4FFF90EF90DF90CF90D2C56B017C017A
:100C50006091A4027091A50280911E0290911F02E2
:100C60006E5F7F4FC5D58091F6019091F701A091FD
:100C7000F801B091F901C816D906EA06FB0640F45E
:100C8000C092F601D092F701E092F801F092F901DA
:100C9000FF90EF90DF90CF9008955F926F927F92D8
:100CA0008F929F92AF92BF92CF92DF92EF92FF927C
:100CB0000F931F93CF93DF934C01162F572E5A019A
:100CC0003901C114D10431F4CA0147D36C01892B15
:100CD00009F4C6C08CE290E040D3EC01009779F0B3
:100CE000DC8ECB8E21E0A21AB108AC0CBD1CBC017D
:100CF000635E7F4FE12FF52DCF01089606C0C60138
:100D0000BCD3AEC0E817F90749F09F014191DB0160
:100D10004D93BD01D9012C912111F4CF1CA2102FAC
:100D20000A3008F019E01A8F1DA31EA26E01B2E06E
:100D3000CB0ED11CC60137D5CE010E9634D5DB873C
:100D4000CA878AE090E0A0E0B0E0811B9109A10988
:100D5000B1098E879F87A88BB98BDF8BCE8B1FA2A3
:100D600018A619A61AA61BA6A301B401C501AFD3E4
:100D700099838883E114F10419F0F701D183C083CA
:100D80000FB6F8940F92809104028F5F8093040253
:100D90008091A4029091A502892B79F5D093A502A8
:100DA000C093A402809104028130B1F586E3E82E5D
:100DB00082E0F82EC701E6D4FBE0EF0EF11C24EA36
:100DC000E21622E0F206B1F78BE292E0DBD480E299
:100DD00092E0D8D481E192E0D5D486E092E0D2D4FA
:100DE0008BE292E090931F0280931E0280E292E0D9
:100DF00090931D0280931C020FC08091FE0181110F
:100E00000BC0E091A402F091A502828D081720F09A
:100E1000D093A502C093A4028091FA018F5F8093C2
:100E2000FA018A8D9091FF01981710F48093FF01C9
:100E3000ABE08A9FC0011124B6018A5C9D4FB7D4F4
:100E40000F900FBE8091FE01882341F0E091A40233
:100E5000F091A502828D801708F4E0D381E001C0F3
:100E60008FEFDF91CF911F910F91FF90EF90DF9067
:100E7000CF90BF90AF909F908F907F906F905F903A
:100E80000895AF92BF92CF92DF92EF92FF920F93AD
:100E9000A12CB12CC12CD12CE12CF12C00E020E0B4
:100EA00030E045E550E06CE371E083E399E0F5DE86
:100EB0008130F1F4F8944FEF5FEFBA014093F601FF
:100EC0005093F7016093F8017093F9018093FE014C
:100ED000109200021092010210920202109203027C
:100EE0000F91FF90EF90DF90CF90BF90AF905BC3DA
:100EF0000F91FF90EF90DF90CF90BF90AF9008954B
:100F00008091F5018F5F8093F50108950FB6F894F5
:100F10000F92609100027091010280910202909103
:100F200003020F900FBE08958F929F92AF92BF92CF
:100F3000EF92FF920F931F93CF93DF938091F50170
:100F40008111A9C08091000290910102A09102023A
:100F5000B09103020196A11DB11D809300029093F0
:100F60000102A0930202B0930302809000029090CD
:100F70000102A0900202B090030281149104A10426
:100F8000B104B1F480911E0290911F0220911C02C5
:100F900030911D0230931F0220931E0290931D0278
:100FA00080931C028091FB018F5F8093FB0104DE24
:100FB0008091F6019091F701A091F801B091F901AB
:100FC000C0E088169906AA06BB0608F454C0DBE008
:100FD000E0911E02F0911F028081811104C08FEF09
:100FE0009FEFDC0113C0E0911E02F0911F02078009
:100FF000F085E02D00851185F80182819381A4811F
:10100000B58188169906AA06BB0648F48093F601B6
:101010009093F701A093F801B093F9012CC07801E7
:10102000F2E0EF0EF11CC70127D4D80158968D913C
:101030009C915997892B19F0C8010E961DD4F8017F
:10104000928D8091FF01891710F49093FF01D99F31
:10105000C0011124B7018A5C9D4FA9D3E091A4027D
:10106000F091A502D8015A969C91828D981708F4A8
:10107000AFCFC1E0ADCFE091A402F091A502E28D27
:10108000BBE0EB9FF0011124EA5CFD4F80818230D0
:1010900040F0C1E006C08091FD018F5F8093FD01AB
:1010A000C0E08091FC018111C1E08C2FDF91CF91D4
:1010B0001F910F91FF90EF90BF90AF909F908F90F6
:1010C0000895EF92FF920F931F93CF93DF930FB684
:1010D000F8940F928091F50181508093F5018091F1
:1010E000F501882311F080E04EC08091040288232E
:1010F000D1F38BE0F82EEE24E39480911102882343
:1011000039F1E0911802F0911902C085D185CE0124
:101110000E96B2D38E010E5F1F4FC801ADD39A8DCC
:101120008091FF01891710F49093FF01F99EC0018F
:101130001124B8018A5C9D4F3AD3E091A402F0914A
:10114000A5029A8D828D9817C0F2E092FC01D5CF4E
:101150008091FD01811108C08091FC01813009F06E
:10116000C2CF5CD281E00FC0C1E08091FD01882335
:1011700099F3DADE8111C093FC018091FD01815069
:101180008093FD01F2CF0F900FBEDF91CF911F91A1
:101190000F91FF90EF900895AF92BF92CF92DF92A0
:1011A000EF92FF920F931F93CF93DF9300D000D065
:1011B000CDB7DEB75C0149835A836B837C83A0DEA5
:1011C000009100021091010220910202309103026D
:1011D000F50180819181A281B38149815A816B811E
:1011E0007C816C017D01C40ED51EE61EF71E08171A
:1011F00019072A073B0730F4C816D906EA06FB068A
:1012000060F405C0C816D906EA06FB0640F091E076
:101210000C151D052E053F0518F090E001C091E06A
:10122000F501C082D182E282F382992349F0809154
:10123000A4029091A50202961FD3C701B601DEDC7D
:1012400040DF811101C0EAD10F900F900F900F90F5
:10125000DF91CF911F910F91FF90EF90DF90CF9092
:10126000BF90AF90089580910502882321F148DE58
:10127000C091060226DFCC23B1F30FB6F8940F928B
:10128000E0910D02F0910E02C085D185CE0102964B
:10129000F3D2809104028150809304028091050270
:1012A0008150809305020F900FBE8B8D9C8DE5D0F1
:1012B000CE01E3D0D8CF809136028230A0F2AED1F9
:1012C000D2CF8091F501882321F081E08093FC0149
:1012D00008951092FC019BE0E091FF019E9FF001B8
:1012E0001124EA5CFD4F8081811106C08091FF01CD
:1012F00081508093FF01F0CF8091FF0190E04BE09F
:10130000489F9001499F300D1124F901EA5CFD4F7F
:10131000A181B28114960D90BC91A02DB283A183BE
:10132000275C3D4FA217B30731F414962D913C91E1
:101330001597328321832BE0289FF001299FF00D20
:101340001124EA5CFD4F0180F281E02D80859185BA
:101350009093A5028093A40208950F931F93CF93B7
:10136000DF93EC01CDDD8091A602811121C080EBDD
:1013700092E09093AC028093AB021092AE02109276
:10138000AD028BED95E09093AA028093A902109292
:10139000A8021092A7029093B3028093B20287EA48
:1013A00092E09093B1028093B00281E08093A60214
:1013B000209709F02496CE0101978A3D954008F0C8
:1013C00053C0E091AB02F091AC02ABEAB2E0828193
:1013D00093818C179D0728F022E0E73AF20749F441
:1013E00043C02081318121153105B1F3DF01F901BD
:1013F000EECF0D911C9111970C5F1F4F2081318111
:101400002D933C938C1B9D0B8930910500F1DF01DE
:10141000AC0FBD1F13969C938E931297D383C283F8
:1014200012962D913C9113976BEA72E0EB01888143
:101430009981EC014A815B814217530710F4BC018A
:10144000F5CF11969C938E93EB01B983A88380917D
:1014500006019091070122813381821B930B9093A7
:1014600007018093060102C000E010E02ADEC801F7
:10147000DF91CF911F910F910895CF93DF93009744
:1014800019F1EC0124973CDD8A819B81EBEAF2E0C3
:10149000A081B18112962D913C911397281739079D
:1014A00010F4FD01F5CFB983A883D183C0832091C7
:1014B000060130910701820F931F909307018093DB
:1014C0000601DF91CF91FDCDDF91CF91089531E1FC
:1014D000FC013083319722E220833197A3E3A0837C
:1014E000319760833197708331971082319760E82C
:1014F000608331971082319762E06083319763E0B7
:101500006083319764E06083319765E06083319751
:1015100066E06083319767E06083319768E06083BD
:10152000319769E06083319760E160833197308360
:10153000319732E13083319733E13083319734E1B1
:101540003083319735E13083319736E130833197FD
:1015500037E13083319738E13083319739E1308397
:10156000319730E23083319731E2308331972083F5
:10157000319723E22083319740833197508331970D
:1015800026E22083319727E22083319728E22083C7
:10159000319729E22083319720E32083319721E39B
:1015A00020838697089589E08093890083EC809357
:1015B00088008BE080938100EFE6F0E0808182601C
:1015C0008083A091A402B091A502CD91CDBFDD9101
:1015D000DEBFFF91EF91DF91CF91BF91AF919F91CE
:1015E0008F917F916F915F914F913F912F911F91BB
:1015F0000F91FF90EF90DF90CF90BF90AF909F90B2
:101600008F907F906F905F904F903F902F901F90A2
:101610000F900FBE0F90089581E008950F920FB6BE
:10162000F8940F921F9211242F923F924F925F9243
:101630006F927F928F929F92AF92BF92CF92DF92E2
:10164000EF92FF920F931F932F933F934F935F93CC
:101650006F937F938F939F93AF93BF93CF93DF93BA
:10166000EF93FF93A091A402B091A5020DB60D9245
:101670000EB60D9226DEA091A402B091A502CD91E6
:10168000CDBFDD91DEBFFF91EF91DF91CF91BF9193
:10169000AF919F918F917F916F915F914F913F910A
:1016A0002F911F910F91FF90EF90DF90CF90BF90FF
:1016B000AF909F908F907F906F905F904F903F90F2
:1016C0002F901F900F900FBE0F9008950F920FB69E
:1016D000F8940F921F9211242F923F924F925F9293
:1016E0006F927F928F929F92AF92BF92CF92DF9232
:1016F000EF92FF920F931F932F933F934F935F931C
:101700006F937F938F939F93AF93BF93CF93DF9309
:10171000EF93FF93A091A402B091A5020DB60D9294
:101720000EB60D9201DC8111CCDDA091A402B09126
:10173000A502CD91CDBFDD91DEBFFF91EF91DF918D
:10174000CF91BF91AF919F918F917F916F915F9159
:101750004F913F912F911F910F91FF90EF90DF904C
:10176000CF90BF90AF909F908F907F906F905F9041
:101770004F903F902F901F900F900FBE0F900895A5
:10178000A5DF1895FC010396928381834FEF5FEFED
:10179000BA014383548365837683908787839287D6
:1017A000818710820895FC01138612860895CF93D5
:1017B000DF939C01FB01DC011196CD91DC91129726
:1017C000D583C4838E819F81978386838E819F81F9
:1017D000DC0115967C936E9314977F836E83338719
:1017E0002287F90180818F5F8083DF91CF910895F7
:1017F000EF92FF920F931F93CF93DF937C01FB0136
:1018000040815181628173814F3F8FEF5807680794
:10181000780721F4E701A985BA8512C0D70113968C
:1018200014968D919C911597EC01088119812A815C
:101830003B81401751076207730710F0DC01F0CFBE
:1018400014968D919C91159795838483EC01FF8369
:10185000EE83B783A6831596FC93EE931497F386D5
:10186000E286F70180818F5F8083DF91CF911F91A6
:101870000F91FF90EF900895CF93DF93FC01A28525
:10188000B3858481958126813781EC013F832E8346
:10189000C681D7819D838C8311968D919C911297DF
:1018A0008E179F0721F41296DC93CE93119713861F
:1018B00012868C9181508C93DF91CF910895A1E293
:1018C0001A2EAA1BBB1BFD010DC0AA1FBB1FEE1FBA
:1018D000FF1FA217B307E407F50720F0A21BB30B05
:1018E000E40BF50B661F771F881F991F1A9469F781
:1018F00060957095809590959B01AC01BD01CF01DD
:101900000895EE0FFF1F0590F491E02D0994F894CF
:02191000FFCF07
:10191200FF6B036B0301DB050000000013013002C3
:10192200B500F2008700A100930000000000E6016C
:10193200477265656E204C4544205461736B0052BA
:101942006564204C6564205461736B0049444C45C6
:02195200000093
:00000001FF
