:100000005EC0000069C300008EC300007FC0000016
:100010007DC000007BC0000079C0000001C300006B
:1000200075C0000073C0000071C000000C943E0B4E
:100030006DC000006BC0000069C0000067C0000018
:10004000A4C3000063C0000034C1000064C100000C
:100050005DC000005BC0000059C0000057C0000038
:1000600055C0000053C0000002000000080002015B
:10007000000003040700000000000000000102046B
:10008000081020408001020408102001020408101A
:100090002004040404040404040202020202020311
:1000A000030303030300000000250028002B0000C9
:1000B000000000240027002A0000B90125021124B5
:1000C0001FBECFEFD8E0DEBFCDBF11E0A0E0B1E0B2
:1000D000EEE0F8E102C005900D92AE32B107D9F71B
:1000E00028E0AEE2B1E001C01D92A737B207E1F708
:1000F00010E0CFE5D0E004C02197FE010E94FF0B85
:10010000CD35D107C9F737D30C94050C79CFFC0155
:10011000918D228D892F90E0805C9F4F821B9109E9
:100120008F7399270895FC01918D828D981731F076
:10013000828DE80FF11D858D90E008958FEF9FEF80
:100140000895FC01918D828D981761F0828DDF01F9
:10015000A80FB11D5D968C91928D9F5F9F73928FBA
:1001600090E008958FEF9FEF0895FC01538D448D2B
:10017000252F30E0842F90E0821B930B541710F052
:10018000CF9608950197089580EB91E0892B41F077
:1001900080E090E0892B21F0E3D081110C940000E5
:1001A0000895FC01848DDF01A80FB11DA35ABF4F34
:1001B0002C91848D90E001968F739927848FA68966
:1001C000B7892C93A089B1898C9180648C93938D8D
:1001D000848D981306C00288F389E02D80818F7D7D
:1001E00080830895CF93DF93EC01888D8823C1F03D
:1001F000EA89FB89808185FD05C0A889B9898C9130
:1002000086FD0EC00FB607FCF5CF808185FFF2CFCB
:10021000A889B9898C9185FFEDCFCE01C2DFE8CFE7
:10022000DF91CF910895EF92FF920F931F93CF9399
:10023000DF93EC0181E0888F9B8D8C8D981305C036
:10024000E889F989808185FD23C0F62E0B8D10E0A9
:100250000F5F1F4F0F731127E02E8C8DE8120BC01C
:100260000FB607FCFACFE889F989808185FFF5CFC1
:10027000CE0197DFF2CF8B8DFE01E80FF11DE35A1F
:10028000FF4FF0820B8FEA89FB898081806207C073
:10029000EE89FF896083E889F989808180648083A1
:1002A00081E090E0DF91CF911F910F91FF90EF904F
:1002B00008951F920F920FB60F9211242F938F93D0
:1002C0009F93EF93FF93E0913E01F0913F01808176
:1002D000E0914401F091450182FD12C0908180912E
:1002E00047018F5F8F7320914801821751F0E09191
:1002F0004701F0E0E25DFE4F958F8093470101C01A
:100300008081FF91EF919F918F912F910F900FBE60
:100310000F901F9018951F920F920FB60F921124F5
:100320002F933F934F935F936F937F938F939F93FD
:10033000AF93BF93EF93FF938EE291E032DFFF9193
:10034000EF91BF91AF919F918F917F916F915F914D
:100350004F913F912F910F900FBE0F901F901895C6
:100360008EE291E0D4DE21E0892B09F420E0822F97
:100370000895EEE2F1E01382128288EE93E0A0E0AD
:10038000B0E084839583A683B7838FE091E0918367
:10039000808385EC90E09587848784EC90E0978754
:1003A000868780EC90E0918B808B81EC90E0938B42
:1003B000828B82EC90E0958B848B86EC90E0978B1F
:1003C000868B118E128E138E148E08958F929F92AB
:1003D000AF92BF92CF92DF92EF92FF920F931F9353
:1003E000CF93DF937C018B016C0182E0C80ED11C9E
:1003F0004701E5E08E0E911CC0E0D0E0F60161916E
:100400006F014AE050E0C801D1D05C016EE2C80142
:1004100067D08A0D9B1DC80FD91FC814D90471F766
:100420004AE050E0F7016581C801C0D08C0F9D1FE4
:10043000DF91CF911F910F91FF90EF90DF90CF90C0
:10044000BF90AF909F908F900895EBECF1E081E228
:1004500091E0918380831282138214821582089521
:10046000CF92DF92EF92FF920F931F93CF93DF9380
:100470006C017A018B01C0E0D0E0CE15DF0589F078
:10048000D8016D918D01D601ED91FC910190F08123
:10049000E02DC6010995892B11F47E0102C0219639
:1004A000ECCFC701DF91CF911F910F91FF90EF909B
:1004B000DF90CF9008956115710579F0FB010190EF
:1004C0000020E9F73197AF01461B570BDC01ED9196
:1004D000FC910280F381E02D099480E090E0089582
:1004E000DC01ED91FC910190F081E02D09948F9257
:1004F0009F92AF92BF92CF92DF92EF92FF920F93B3
:100500001F93CF93DF93CDB7DEB7A1970FB6F894C3
:10051000DEBF0FBECDBF7C01D42EC52EDB0119A2DC
:10052000223008F42AE08E010F5D1F4F822E912C9D
:10053000A12CB12C6D2D7C2DCD01A50194010E9423
:10054000DD0BD22EC32EDA01015011096A3071057C
:100550008105910510F4605D01C0695CF80160835C
:10056000232B242B252B31F7B801C701A4DFA1963B
:100570000FB6F894DEBF0FBECDBFDF91CF911F91B4
:100580000F91FF90EF90DF90CF90BF90AF909F9032
:100590008F9008952115310541F4DC01ED91FC9116
:1005A0000190F081E02D642F0994A1CF9A01462F8C
:1005B00050E060E070E0EECF813039F018F082302A
:1005C00051F0089510926E00089580916F008D7F14
:1005D00080936F000895809170008D7F80937000EC
:1005E00081E08093B0008091B100887F8460809327
:1005F000B1001092B3000895CF93C82F80910001ED
:100600008C1307C0E8E6F0E0E4918FEF80930001DF
:1006100001C0EFEF8E2FD0DF60E08C2FCF919FC114
:100620001F920F920FB60F9211242F933F934F9367
:100630005F936F937F938F939F93AF93BF93EF934A
:10064000FF938091D4019091D501A091D601B091F2
:10065000D701892B8A2B8B2B51F18091D101E0910D
:10066000D201F091D3019081892780838091D401B8
:100670009091D501A091D601B091D7011816190615
:100680001A061B06BCF48091D4019091D501A0916B
:10069000D601B091D7010197A109B1098093D40186
:1006A0009093D501A093D601B093D70103C0809158
:1006B0000001A2DFFF91EF91BF91AF919F918F91C8
:1006C0007F916F915F914F913F912F910F900FBE4E
:1006D0000F901F90189508951F920F920FB60F92CA
:1006E00011242F933F934F935F936F937F938F9337
:1006F0009F93AF93BF93EF93FF93E0910101F0912C
:1007000002010995FF91EF91BF91AF919F918F9158
:100710007F916F915F914F913F912F910F900FBEFD
:100720000F901F9018951F920F920FB60F921124E1
:100730002F933F934F935F936F937F938F939F93E9
:10074000AF93BF93EF93FF93E0910301F091040106
:100750000995FF91EF91BF91AF919F918F917F91FB
:100760006F915F914F913F912F910F900FBE0F901E
:100770001F901895089553D0FDDF7CD1C4ECD0E0D4
:100780007CD12097E9F300DDFBCF1F920F920FB6CB
:100790000F9211242F933F938F939F93AF93BF9307
:1007A0008091D9019091DA01A091DB01B091DC0137
:1007B0003091D80123E0230F2D3720F40196A11D9D
:1007C000B11D05C026E8230F0296A11DB11D20937F
:1007D000D8018093D9019093DA01A093DB01B09303
:1007E000DC018091DD019091DE01A091DF01B091EB
:1007F000E0010196A11DB11D8093DD019093DE0102
:10080000A093DF01B093E001BF91AF919F918F91D1
:100810003F912F910F900FBE0F901F9018957894D5
:1008200084B5826084BD84B5816084BD85B58260F5
:1008300085BD85B5816085BDEEE6F0E08081816093
:100840008083E1E8F0E01082808182608083808193
:1008500081608083E0E8F0E0808181608083E1EB6B
:10086000F0E0808184608083E0EBF0E08081816053
:100870008083EAE7F0E08081846080838081826009
:1008800080838081816080838081806880831092F2
:10089000C1000895833081F028F4813099F08230CE
:1008A000A1F008958730A9F08830B9F08430D1F4F0
:1008B000809180008F7D03C0809180008F7780932E
:1008C0008000089584B58F7702C084B58F7D84BD84
:1008D00008958091B0008F7703C08091B0008F7D24
:1008E0008093B0000895CF93DF9390E0FC01E3582C
:1008F000FF4F2491FC01EF56FF4F8491882361F153
:1009000090E0880F991FFC01E155FF4FC591D491EC
:10091000FC01EB55FF4FA591B491611109C09FB740
:10092000F8948881209582238883EC912E230BC034
:10093000623061F49FB7F8943881822F80958323C9
:100940008883EC912E2B2C939FBF06C08FB7F89411
:10095000E8812E2B28838FBFDF91CF9108951F93BD
:10096000CF93DF93282F30E0F901E759FF4F8491AF
:10097000F901E358FF4FD491F901EF56FF4FC491AD
:10098000CC23C1F0162F811185DFEC2FF0E0EE0FA4
:10099000FF1FEB55FF4FA591B4918FB7F89411113C
:1009A00005C09C91ED2FE095E92302C0EC91ED2B61
:1009B000EC938FBFDF91CF911F910895CF93DF9379
:1009C00000D000D0CDB7DEB71FD269837A838B8386
:1009D0009C8361E086E0C3DF4091050150910601F0
:1009E0006091070170910801CE01019653D30CD29A
:1009F00069837A838B839C8360E086E0B0DF80919B
:100A0000050190910601A0910701B091080144E110
:100A100050E060E070E0481B590B6A0B7B0BCE0185
:100A2000019638D38091050190910601A0910701AC
:100A3000B09108010196A11DB11D85319105A10557
:100A4000B10548F48093050190930601A093070136
:100A5000B093080108C0109205011092060110928F
:100A60000701109208010F900F900F900F90DF91E7
:100A7000CF91089561E086E036CFAF92BF92CF92DA
:100A8000DF92EF92FF920F93A12CB12CC12CD12CAD
:100A9000E12CF12C01E020E030E048EC50E063E292
:100AA00071E08EED94E079D00F91FF90EF90DF90A0
:100AB000CF90BF90AF9063C1E0910A02F0910B021A
:100AC0008081811104C08FEF9FEFDC010EC0E091A7
:100AD0000A02F0910B020780F085E02D0084F18579
:100AE000E02D82819381A481B5818093E20190936E
:100AF000E301A093E401B093E5010895CF92DF9262
:100B0000EF92FF92E0919002F091910262837383E1
:100B100084839583C090EC01D090ED01E090EE01CC
:100B2000F090EF016C157D058E059F0578F46091BE
:100B300090027091910280910802909109026E5F7B
:100B40007F4FFF90EF90DF90CF90D0C56B017C017D
:100B5000609190027091910280910A0290910B0233
:100B60006E5F7F4FC3D58091E2019091E301A09128
:100B7000E401B091E501C816D906EA06FB0640F487
:100B8000C092E201D092E301E092E401F092E5012B
:100B9000FF90EF90DF90CF9008955F926F927F92D9
:100BA0008F929F92AF92BF92CF92DF92EF92FF927D
:100BB0000F931F93CF93DF934C01162F572E5A019B
:100BC0003901C114D10431F4CA0145D36C01892B18
:100BD00009F4C4C08AE290E03ED3EC01009779F0BA
:100BE000DC8ECB8E21E0A21AB108AC0CBD1CBC017E
:100BF000635E7F4FE12FF52DCF01089606C0C60139
:100C0000BAD3ACC0E817F90749F09F014191DB0165
:100C10004D93BD01D9012C912111F4CF1CA2102FAD
:100C20000A3008F019E01A8F6E01B2E0CB0ED11C29
:100C3000C60137D5CE010E9634D5DB87CA878AE048
:100C400090E0A0E0B0E0811B9109A109B1098E8775
:100C50009F87A88BB98BDF8BCE8B1DA21EA21FA2F4
:100C600018A619A6A301B401C501AFD3998388833F
:100C7000E114F10419F0F701D183C0830FB6F894A1
:100C80000F928091F0018F5F8093F001809190022C
:100C900090919102892B79F5D0939102C0939002A3
:100CA0008091F0018130B1F582E2E82E82E0F82EE9
:100CB000C701E6D4FBE0EF0EF11C20E9E21622E0CA
:100CC000F206B1F787E192E0DBD48CE092E0D8D471
:100CD0008DEF91E0D5D482EF91E0D2D487E192E01C
:100CE00090930B0280930A028CE092E090930902A9
:100CF000809308020FC08091EA0181110BC0E0913E
:100D00009002F0919102828D081720F0D093910209
:100D1000C09390028091E6018F5F8093E6018A8DF7
:100D20009091EB01981710F48093EB01ABE08A9F50
:100D3000C0011124B6018E5D9D4FB7D40F900FBE38
:100D40008091EA01882341F0E0919002F0919102B4
:100D5000828D801708F4E0D381E001C08FEFDF912E
:100D6000CF911F910F91FF90EF90DF90CF90BF90A8
:100D7000AF909F908F907F906F905F900895AF920B
:100D8000BF92CF92DF92EF92FF920F93A12CB12CE2
:100D9000C12CD12CE12CF12C00E020E030E045E525
:100DA00050E069E271E081EB98E0F7DE8130F1F428
:100DB000F8944FEF5FEFBA014093E2015093E301E3
:100DC0006093E4017093E5018093EA011092EC01D5
:100DD0001092ED011092EE011092EF010F91FF9031
:100DE000EF90DF90CF90BF90AF905BC30F91FF90DB
:100DF000EF90DF90CF90BF90AF9008958091E10188
:100E00008F5F8093E10108950FB6F8940F9260917F
:100E1000EC017091ED018091EE019091EF010F9046
:100E20000FBE08958F929F92AF92BF92EF92FF9262
:100E30000F931F93CF93DF938091E1018111A9C09C
:100E40008091EC019091ED01A091EE01B091EF0144
:100E50000196A11DB11D8093EC019093ED01A0932B
:100E6000EE01B093EF018090EC019090ED01A09025
:100E7000EE01B090EF0181149104A104B104B1F42A
:100E800080910A0290910B02209108023091090290
:100E900030930B0220930A02909309028093080278
:100EA0008091E7018F5F8093E70106DE8091E20188
:100EB0009091E301A091E401B091E501C0E08816B2
:100EC0009906AA06BB0608F454C0DBE0E0910A02CA
:100ED000F0910B028081811104C08FEF9FEFDC0144
:100EE00013C0E0910A02F0910B020780F085E02D1B
:100EF00000851185F80182819381A481B5818816CE
:100F00009906AA06BB0648F48093E2019093E30198
:100F1000A093E401B093E5012CC07801F2E0EF0E5C
:100F2000F11CC70127D4D80158968D919C915997EF
:100F3000892B19F0C8010E961DD4F801928D80916D
:100F4000EB01891710F49093EB01D99FC001112494
:100F5000B7018E5D9D4FA9D3E0919002F09191026F
:100F6000D8015A969C91828D981708F4AFCFC1E0B2
:100F7000ADCFE0919002F0919102E28DBBE0EB9F4A
:100F8000F0011124EE5DFD4F8081823040F0C1E020
:100F900006C08091E9018F5F8093E901C0E08091F4
:100FA000E8018111C1E08C2FDF91CF911F910F914A
:100FB000FF90EF90BF90AF909F908F900895EF9229
:100FC000FF920F931F93CF93DF930FB6F8940F9276
:100FD0008091E10181508093E1018091E1018823BA
:100FE00011F080E04EC08091F0018823D1F38BE0B6
:100FF000F82EEE24E3948091FD01882339F1E091ED
:101000000402F0910502C085D185CE010E96B2D3BF
:101010008E010E5F1F4FC801ADD39A8D8091EB01F9
:10102000891710F49093EB01F99EC0011124B801C7
:101030008E5D9D4F3AD3E0919002F09191029A8D8E
:10104000828D9817C0F2E092E801D5CF8091E90136
:10105000811108C08091E801813009F0C2CF5CD2D3
:1010600081E00FC0C1E08091E901882399F3DADEC5
:101070008111C093E8018091E90181508093E901D9
:10108000F2CF0F900FBEDF91CF911F910F91FF9084
:10109000EF900895AF92BF92CF92DF92EF92FF92BE
:1010A0000F931F93CF93DF9300D000D0CDB7DEB75F
:1010B0005C0149835A836B837C83A0DE0091EC0141
:1010C0001091ED012091EE013091EF01F501808149
:1010D0009181A281B38149815A816B817C816C01AC
:1010E0007D01C40ED51EE61EF71E081719072A0734
:1010F0003B0730F4C816D906EA06FB0660F405C0C3
:10110000C816D906EA06FB0640F091E00C151D054D
:101110002E053F0518F090E001C091E0F501C08276
:10112000D182E282F382992349F0809190029091DA
:10113000910202961FD3C701B601E0DC40DF8111A6
:1011400001C0EAD10F900F900F900F90DF91CF91D7
:101150001F910F91FF90EF90DF90CF90BF90AF90D5
:1011600008958091F101882321F148DEC091F201B8
:1011700026DFCC23B1F30FB6F8940F92E091F9017A
:10118000F091FA01C085D185CE010296F3D280910B
:10119000F00181508093F0018091F10181508093A2
:1011A000F1010F900FBE8B8D9C8DE5D0CE01E3D069
:1011B000D8CF809122028230A0F2AED1D2CF8091DE
:1011C000E101882321F081E08093E80108951092E5
:1011D000E8019BE0E091EB019E9FF0011124EE5DA0
:1011E000FD4F8081811106C08091EB018150809379
:1011F000EB01F0CF8091EB0190E04BE0489F900134
:10120000499F300D1124F901EE5DFD4FA181B2819E
:1012100014960D90BC91A02DB283A1832B5D3D4F00
:10122000A217B30731F414962D913C911597328390
:1012300021832BE0289FF001299FF00D1124EE5D02
:10124000FD4F0180F281E02D808591859093910280
:101250008093900208950F931F93CF93DF93EC0137
:10126000CDDD80919202811121C08CE992E09093B2
:1012700098028093970210929A02109299028BED35
:1012800095E09093960280939502109294021092AA
:10129000930290939F0280939E0283E992E0909341
:1012A0009D0280939C0281E080939202209709F036
:1012B0002496CE0101978A3D954008F053C0E091F5
:1012C0009702F0919802A7E9B2E0828193818C178E
:1012D0009D0728F022E0E339F20749F443C020815A
:1012E000318121153105B1F3DF01F901EECF0D9107
:1012F0001C9111970C5F1F4F208131812D933C93DE
:101300008C1B9D0B8930910500F1DF01AC0FBD1FD7
:1013100013969C938E931297D383C28312962D912A
:101320003C91139767E972E0EB0188819981EC01A8
:101330004A815B814217530710F4BC01F5CF119627
:101340009C938E93EB01B983A883809109019091BE
:101350000A0122813381821B930B90930A018093AF
:10136000090102C000E010E02ADEC801DF91CF9140
:101370001F910F910895CF93DF93009719F1EC011E
:1013800024973CDD8A819B81E7E9F2E0A081B1816D
:1013900012962D913C9113972817390710F4FD01EF
:1013A000F5CFB983A883D183C083209109013091FF
:1013B0000A01820F931F90930A0180930901DF9124
:1013C000CF91FDCDDF91CF91089531E1FC013083C4
:1013D000319722E220833197A3E3A0833197608382
:1013E0003197708331971082319760E8608331972D
:1013F0001082319762E06083319763E060833197B8
:1014000064E06083319765E06083319766E06083D4
:10141000319767E06083319768E06083319769E0D6
:101420006083319760E1608331973083319732E197
:101430003083319733E13083319734E13083319712
:1014400035E13083319736E13083319737E13083AE
:10145000319738E13083319739E13083319730E289
:101460003083319731E2308331972083319723E203
:1014700020833197408331975083319726E2208330
:10148000319727E22083319728E22083319729E2A0
:101490002083319720E32083319721E320838697AF
:1014A000089589E08093890083EC809388008BE025
:1014B00080938100EFE6F0E0808182608083A091DC
:1014C0009002B0919102CD91CDBFDD91DEBFFF9131
:1014D000EF91DF91CF91BF91AF919F918F917F91CC
:1014E0006F915F914F913F912F911F910F91FF90BD
:1014F000EF90DF90CF90BF90AF909F908F907F90B4
:101500006F905F904F903F902F901F900F900FBE65
:101510000F90089581E008950F920FB6F8940F92FE
:101520001F9211242F923F924F925F926F927F925F
:101530008F929F92AF92BF92CF92DF92EF92FF92E3
:101540000F931F932F933F934F935F936F937F93CB
:101550008F939F93AF93BF93CF93DF93EF93FF93BB
:10156000A0919002B09191020DB60D920EB60D921F
:1015700026DEA0919002B0919102CD91CDBFDD9178
:10158000DEBFFF91EF91DF91CF91BF91AF919F911E
:101590008F917F916F915F914F913F912F911F910B
:1015A0000F91FF90EF90DF90CF90BF90AF909F9002
:1015B0008F907F906F905F904F903F902F901F90F3
:1015C0000F900FBE0F9008950F920FB6F8940F92E0
:1015D0001F9211242F923F924F925F926F927F92AF
:1015E0008F929F92AF92BF92CF92DF92EF92FF9233
:1015F0000F931F932F933F934F935F936F937F931B
:101600008F939F93AF93BF93CF93DF93EF93FF930A
:10161000A0919002B09191020DB60D920EB60D926E
:1016200001DC8111CCDDA0919002B0919102CD91AD
:10163000CDBFDD91DEBFFF91EF91DF91CF91BF91E3
:10164000AF919F918F917F916F915F914F913F915A
:101650002F911F910F91FF90EF90DF90CF90BF904F
:10166000AF909F908F907F906F905F904F903F9042
:101670002F901F900F900FBE0F900895A5DF189523
:10168000FC010396928381834FEF5FEFBA0143839E
:1016900054836583768390878783928781871082BE
:1016A0000895FC01138612860895CF93DF939C0161
:1016B000FB01DC011196CD91DC911297D583C48397
:1016C0008E819F81978386838E819F81DC01159611
:1016D0007C936E9314977F836E8333872287F901FF
:1016E00080818F5F8083DF91CF910895EF92FF9289
:1016F0000F931F93CF93DF937C01FB0140815181B6
:10170000628173814F3F8FEF58076807780721F494
:10171000E701A985BA8512C0D701139614968D9159
:101720009C911597EC01088119812A813B81401712
:1017300051076207730710F0DC01F0CF14968D910A
:101740009C91159795838483EC01FF83EE83B78387
:10175000A6831596FC93EE931497F386E286F70121
:1017600080818F5F8083DF91CF911F910F91FF90D8
:10177000EF900895CF93DF93FC01A285B385848118
:10178000958126813781EC013F832E83C681D781E5
:101790009D838C8311968D919C9112978E179F0734
:1017A00021F41296DC93CE931197138612868C91B6
:1017B00081508C93DF91CF910895A1E21A2EAA1B3C
:1017C000BB1BFD010DC0AA1FBB1FEE1FFF1FA217F1
:1017D000B307E407F50720F0A21BB30BE40BF50BEE
:1017E000661F771F881F991F1A9469F76095709577
:1017F000809590959B01AC01BD01CF010895EE0F3E
:0E180000FF1F0590F491E02D0994F894FFCF9E
:10180E00FF6B036B0314000000DB050000000013E8
:10181E00013002B500F2008700A100930000000025
:0E182E0000E6015461736B310049444C4500E3
:00000001FF
